{
  "contractName": "Instagram",
  "abi": [
    {
      "anonymous": false,
      "inputs": [
        {
          "indexed": false,
          "internalType": "uint256",
          "name": "idpost",
          "type": "uint256"
        },
        {
          "indexed": false,
          "internalType": "uint256",
          "name": "idcomment",
          "type": "uint256"
        },
        {
          "indexed": false,
          "internalType": "string",
          "name": "comment",
          "type": "string"
        },
        {
          "indexed": false,
          "internalType": "address",
          "name": "author",
          "type": "address"
        }
      ],
      "name": "CommentCreated",
      "type": "event"
    },
    {
      "anonymous": false,
      "inputs": [
        {
          "indexed": false,
          "internalType": "uint256",
          "name": "id",
          "type": "uint256"
        },
        {
          "indexed": false,
          "internalType": "string",
          "name": "hashimage",
          "type": "string"
        },
        {
          "indexed": false,
          "internalType": "string",
          "name": "description",
          "type": "string"
        },
        {
          "indexed": false,
          "internalType": "address payable",
          "name": "author",
          "type": "address"
        }
      ],
      "name": "PostCreated",
      "type": "event"
    },
    {
      "anonymous": false,
      "inputs": [
        {
          "indexed": false,
          "internalType": "uint256",
          "name": "id",
          "type": "uint256"
        },
        {
          "indexed": false,
          "internalType": "uint256",
          "name": "tipamount",
          "type": "uint256"
        },
        {
          "indexed": false,
          "internalType": "address",
          "name": "currentaccount",
          "type": "address"
        },
        {
          "indexed": false,
          "internalType": "address payable",
          "name": "author",
          "type": "address"
        }
      ],
      "name": "TipPosted",
      "type": "event"
    },
    {
      "inputs": [],
      "name": "PostCounter",
      "outputs": [
        {
          "internalType": "uint256",
          "name": "",
          "type": "uint256"
        }
      ],
      "stateMutability": "view",
      "type": "function",
      "constant": true
    },
    {
      "inputs": [
        {
          "internalType": "uint256",
          "name": "",
          "type": "uint256"
        }
      ],
      "name": "posts",
      "outputs": [
        {
          "internalType": "uint256",
          "name": "id",
          "type": "uint256"
        },
        {
          "internalType": "uint256",
          "name": "likeCounter",
          "type": "uint256"
        },
        {
          "internalType": "uint256",
          "name": "disLikeCounter",
          "type": "uint256"
        },
        {
          "internalType": "uint256",
          "name": "commentCounter",
          "type": "uint256"
        },
        {
          "internalType": "uint256",
          "name": "tipAmount",
          "type": "uint256"
        },
        {
          "internalType": "string",
          "name": "hashImage",
          "type": "string"
        },
        {
          "internalType": "string",
          "name": "description",
          "type": "string"
        },
        {
          "internalType": "string",
          "name": "date",
          "type": "string"
        },
        {
          "internalType": "address payable",
          "name": "author",
          "type": "address"
        }
      ],
      "stateMutability": "view",
      "type": "function",
      "constant": true
    },
    {
      "inputs": [
        {
          "internalType": "string",
          "name": "hashimg",
          "type": "string"
        },
        {
          "internalType": "string",
          "name": "des",
          "type": "string"
        },
        {
          "internalType": "string",
          "name": "date",
          "type": "string"
        }
      ],
      "name": "UplodPost",
      "outputs": [],
      "stateMutability": "nonpayable",
      "type": "function"
    },
    {
      "inputs": [
        {
          "internalType": "uint256",
          "name": "_id",
          "type": "uint256"
        }
      ],
      "name": "getPost",
      "outputs": [
        {
          "components": [
            {
              "internalType": "uint256",
              "name": "id",
              "type": "uint256"
            },
            {
              "internalType": "uint256",
              "name": "likeCounter",
              "type": "uint256"
            },
            {
              "internalType": "uint256",
              "name": "disLikeCounter",
              "type": "uint256"
            },
            {
              "internalType": "uint256",
              "name": "commentCounter",
              "type": "uint256"
            },
            {
              "internalType": "uint256",
              "name": "tipAmount",
              "type": "uint256"
            },
            {
              "internalType": "string",
              "name": "hashImage",
              "type": "string"
            },
            {
              "internalType": "string",
              "name": "description",
              "type": "string"
            },
            {
              "internalType": "string",
              "name": "date",
              "type": "string"
            },
            {
              "internalType": "address payable",
              "name": "author",
              "type": "address"
            }
          ],
          "internalType": "struct Instagram.Post",
          "name": "",
          "type": "tuple"
        }
      ],
      "stateMutability": "view",
      "type": "function",
      "constant": true
    },
    {
      "inputs": [
        {
          "internalType": "uint256",
          "name": "_id",
          "type": "uint256"
        }
      ],
      "name": "AddLike",
      "outputs": [],
      "stateMutability": "nonpayable",
      "type": "function"
    },
    {
      "inputs": [
        {
          "internalType": "uint256",
          "name": "_id",
          "type": "uint256"
        }
      ],
      "name": "SubLike",
      "outputs": [],
      "stateMutability": "nonpayable",
      "type": "function"
    },
    {
      "inputs": [
        {
          "internalType": "uint256",
          "name": "_id",
          "type": "uint256"
        }
      ],
      "name": "getLike",
      "outputs": [
        {
          "internalType": "address[]",
          "name": "",
          "type": "address[]"
        }
      ],
      "stateMutability": "view",
      "type": "function",
      "constant": true
    },
    {
      "inputs": [
        {
          "internalType": "uint256",
          "name": "_id",
          "type": "uint256"
        }
      ],
      "name": "AdddisLike",
      "outputs": [],
      "stateMutability": "nonpayable",
      "type": "function"
    },
    {
      "inputs": [
        {
          "internalType": "uint256",
          "name": "_id",
          "type": "uint256"
        }
      ],
      "name": "SubdisLike",
      "outputs": [],
      "stateMutability": "nonpayable",
      "type": "function"
    },
    {
      "inputs": [
        {
          "internalType": "uint256",
          "name": "_id",
          "type": "uint256"
        }
      ],
      "name": "getdisLike",
      "outputs": [
        {
          "internalType": "address[]",
          "name": "",
          "type": "address[]"
        }
      ],
      "stateMutability": "view",
      "type": "function",
      "constant": true
    },
    {
      "inputs": [
        {
          "internalType": "uint256",
          "name": "_id",
          "type": "uint256"
        },
        {
          "internalType": "string",
          "name": "comment",
          "type": "string"
        },
        {
          "internalType": "string",
          "name": "date",
          "type": "string"
        }
      ],
      "name": "AddComment",
      "outputs": [],
      "stateMutability": "nonpayable",
      "type": "function"
    },
    {
      "inputs": [
        {
          "internalType": "uint256",
          "name": "_id",
          "type": "uint256"
        }
      ],
      "name": "getComments",
      "outputs": [
        {
          "components": [
            {
              "internalType": "uint256",
              "name": "id",
              "type": "uint256"
            },
            {
              "internalType": "string",
              "name": "comment",
              "type": "string"
            },
            {
              "internalType": "string",
              "name": "date",
              "type": "string"
            },
            {
              "internalType": "address",
              "name": "author",
              "type": "address"
            }
          ],
          "internalType": "struct Instagram.Comment[]",
          "name": "",
          "type": "tuple[]"
        }
      ],
      "stateMutability": "view",
      "type": "function",
      "constant": true
    },
    {
      "inputs": [
        {
          "internalType": "uint256",
          "name": "_id",
          "type": "uint256"
        }
      ],
      "name": "TipPosts",
      "outputs": [],
      "stateMutability": "payable",
      "type": "function",
      "payable": true
    }
  ],
  "bytecode": "0x608060405234801561001057600080fd5b50612c61806100206000396000f3fe6080604052600436106100c25760003560e01c80637fc59ce91161007f578063b8a7999311610059578063b8a7999314610297578063cbf3f84d146102c0578063d5be17bd146102e9578063db937b0f14610312576100c2565b80637fc59ce914610229578063a481ee3a14610252578063b1d855ee1461026e576100c2565b80630b1e7f83146100c757806323edf6971461010c5780632d742717146101495780633c7300f81461018657806340731c24146101af578063600cfe51146101ec575b600080fd5b3480156100d357600080fd5b506100ee60048036038101906100e99190611c2b565b61033d565b60405161010399989796959493929190611d41565b60405180910390f35b34801561011857600080fd5b50610133600480360381019061012e9190611c2b565b610543565b6040516101409190611f89565b60405180910390f35b34801561015557600080fd5b50610170600480360381019061016b9190611c2b565b6107c0565b60405161017d919061205a565b60405180910390f35b34801561019257600080fd5b506101ad60048036038101906101a89190611c2b565b6108f3565b005b3480156101bb57600080fd5b506101d660048036038101906101d19190611c2b565b6109f7565b6040516101e3919061215e565b60405180910390f35b3480156101f857600080fd5b50610213600480360381019061020e9190611c2b565b610cb3565b604051610220919061205a565b60405180910390f35b34801561023557600080fd5b50610250600480360381019061024b91906122b5565b610de6565b005b61026c60048036038101906102679190611c2b565b61101b565b005b34801561027a57600080fd5b5061029560048036038101906102909190611c2b565b611429565b005b3480156102a357600080fd5b506102be60048036038101906102b99190611c2b565b61150a565b005b3480156102cc57600080fd5b506102e760048036038101906102e29190612340565b61160e565b005b3480156102f557600080fd5b50610310600480360381019061030b9190611c2b565b6118bb565b005b34801561031e57600080fd5b5061032761199c565b60405161033491906123e7565b60405180910390f35b600060205280600052604060002060009150905080600001549080600101549080600201549080600301549080600401549080600501805461037e90612431565b80601f01602080910402602001604051908101604052809291908181526020018280546103aa90612431565b80156103f75780601f106103cc576101008083540402835291602001916103f7565b820191906000526020600020905b8154815290600101906020018083116103da57829003601f168201915b50505050509080600601805461040c90612431565b80601f016020809104026020016040519081016040528092919081815260200182805461043890612431565b80156104855780601f1061045a57610100808354040283529160200191610485565b820191906000526020600020905b81548152906001019060200180831161046857829003601f168201915b50505050509080600701805461049a90612431565b80601f01602080910402602001604051908101604052809291908181526020018280546104c690612431565b80156105135780601f106104e857610100808354040283529160200191610513565b820191906000526020600020905b8154815290600101906020018083116104f657829003601f168201915b5050505050908060080160009054906101000a900473ffffffffffffffffffffffffffffffffffffffff16905089565b606060008060008481526020019081526020016000206003015467ffffffffffffffff8111156105765761057561218a565b5b6040519080825280602002602001820160405280156105af57816020015b61059c611a9e565b8152602001906001900390816105945790505b50905060005b600080858152602001908152602001600020600301548110156107b6576001600085815260200190815260200160002060008281526020019081526020016000206040518060800160405290816000820154815260200160018201805461061b90612431565b80601f016020809104026020016040519081016040528092919081815260200182805461064790612431565b80156106945780601f1061066957610100808354040283529160200191610694565b820191906000526020600020905b81548152906001019060200180831161067757829003601f168201915b505050505081526020016002820180546106ad90612431565b80601f01602080910402602001604051908101604052809291908181526020018280546106d990612431565b80156107265780601f106106fb57610100808354040283529160200191610726565b820191906000526020600020905b81548152906001019060200180831161070957829003601f168201915b505050505081526020016003820160009054906101000a900473ffffffffffffffffffffffffffffffffffffffff1673ffffffffffffffffffffffffffffffffffffffff1673ffffffffffffffffffffffffffffffffffffffff168152505082828151811061079857610797612463565b5b602002602001018190525080806107ae906124c1565b9150506105b5565b5080915050919050565b606060008060008481526020019081526020016000206001015467ffffffffffffffff8111156107f3576107f261218a565b5b6040519080825280602002602001820160405280156108215781602001602082028036833780820191505090505b50905060005b600080858152602001908152602001600020600101548110156108e95760026000858152602001908152602001600020600082815260200190815260200160002060009054906101000a900473ffffffffffffffffffffffffffffffffffffffff1682828151811061089c5761089b612463565b5b602002602001019073ffffffffffffffffffffffffffffffffffffffff16908173ffffffffffffffffffffffffffffffffffffffff168152505080806108e1906124c1565b915050610827565b5080915050919050565b60008110158015610905575060045481105b610944576040517f08c379a000000000000000000000000000000000000000000000000000000000815260040161093b9061257c565b60405180910390fd5b60008060008381526020019081526020016000206001015490506000808381526020019081526020016000206001016000815480929190610984906124c1565b91905055506109916119a2565b60026000848152602001908152602001600020600083815260200190815260200160002060006101000a81548173ffffffffffffffffffffffffffffffffffffffff021916908373ffffffffffffffffffffffffffffffffffffffff1602179055505050565b6109ff611adc565b60008210158015610a11575060045482105b610a50576040517f08c379a0000000000000000000000000000000000000000000000000000000008152600401610a479061257c565b60405180910390fd5b600080838152602001908152602001600020604051806101200160405290816000820154815260200160018201548152602001600282015481526020016003820154815260200160048201548152602001600582018054610ab090612431565b80601f0160208091040260200160405190810160405280929190818152602001828054610adc90612431565b8015610b295780601f10610afe57610100808354040283529160200191610b29565b820191906000526020600020905b815481529060010190602001808311610b0c57829003601f168201915b50505050508152602001600682018054610b4290612431565b80601f0160208091040260200160405190810160405280929190818152602001828054610b6e90612431565b8015610bbb5780601f10610b9057610100808354040283529160200191610bbb565b820191906000526020600020905b815481529060010190602001808311610b9e57829003601f168201915b50505050508152602001600782018054610bd490612431565b80601f0160208091040260200160405190810160405280929190818152602001828054610c0090612431565b8015610c4d5780601f10610c2257610100808354040283529160200191610c4d565b820191906000526020600020905b815481529060010190602001808311610c3057829003601f168201915b505050505081526020016008820160009054906101000a900473ffffffffffffffffffffffffffffffffffffffff1673ffffffffffffffffffffffffffffffffffffffff1673ffffffffffffffffffffffffffffffffffffffff16815250509050919050565b606060008060008481526020019081526020016000206002015467ffffffffffffffff811115610ce657610ce561218a565b5b604051908082528060200260200182016040528015610d145781602001602082028036833780820191505090505b50905060005b60008085815260200190815260200160002060020154811015610ddc5760036000858152602001908152602001600020600082815260200190815260200160002060009054906101000a900473ffffffffffffffffffffffffffffffffffffffff16828281518110610d8f57610d8e612463565b5b602002602001019073ffffffffffffffffffffffffffffffffffffffff16908173ffffffffffffffffffffffffffffffffffffffff16815250508080610dd4906124c1565b915050610d1a565b5080915050919050565b60008310158015610df8575060045483105b610e37576040517f08c379a0000000000000000000000000000000000000000000000000000000008152600401610e2e9061260e565b60405180910390fd5b6000825111610e7b576040517f08c379a0000000000000000000000000000000000000000000000000000000008152600401610e72906126a0565b60405180910390fd5b60008060008581526020019081526020016000206003015490508060016000868152602001908152602001600020600083815260200190815260200160002060000181905550826001600086815260200190815260200160002060008381526020019081526020016000206001019080519060200190610efc929190611b3e565b50816001600086815260200190815260200160002060008381526020019081526020016000206002019080519060200190610f38929190611b3e565b50610f416119a2565b60016000868152602001908152602001600020600083815260200190815260200160002060030160006101000a81548173ffffffffffffffffffffffffffffffffffffffff021916908373ffffffffffffffffffffffffffffffffffffffff1602179055506000808581526020019081526020016000206003016000815480929190610fcc906124c1565b91905055507f303b5fc799fd9ae7d61dfd1fafc59a312028e848d72a8964b3ee09fef1d1f141848285610ffd6119a2565b60405161100d94939291906126cf565b60405180910390a150505050565b6000811015801561102d575060045481105b61106c576040517f08c379a00000000000000000000000000000000000000000000000000000000081526004016110639061260e565b60405180910390fd5b60008060008381526020019081526020016000206040518061012001604052908160008201548152602001600182015481526020016002820154815260200160038201548152602001600482015481526020016005820180546110ce90612431565b80601f01602080910402602001604051908101604052809291908181526020018280546110fa90612431565b80156111475780601f1061111c57610100808354040283529160200191611147565b820191906000526020600020905b81548152906001019060200180831161112a57829003601f168201915b5050505050815260200160068201805461116090612431565b80601f016020809104026020016040519081016040528092919081815260200182805461118c90612431565b80156111d95780601f106111ae576101008083540402835291602001916111d9565b820191906000526020600020905b8154815290600101906020018083116111bc57829003601f168201915b505050505081526020016007820180546111f290612431565b80601f016020809104026020016040519081016040528092919081815260200182805461121e90612431565b801561126b5780601f106112405761010080835404028352916020019161126b565b820191906000526020600020905b81548152906001019060200180831161124e57829003601f168201915b505050505081526020016008820160009054906101000a900473ffffffffffffffffffffffffffffffffffffffff1673ffffffffffffffffffffffffffffffffffffffff1673ffffffffffffffffffffffffffffffffffffffff16815250509050600081610100015190506112e081346119aa565b34826080018181516112f2919061271b565b9150818152505081600080858152602001908152602001600020600082015181600001556020820151816001015560408201518160020155606082015181600301556080820151816004015560a082015181600501908051906020019061135a929190611b3e565b5060c0820151816006019080519060200190611377929190611b3e565b5060e0820151816007019080519060200190611394929190611b3e565b506101008201518160080160006101000a81548173ffffffffffffffffffffffffffffffffffffffff021916908373ffffffffffffffffffffffffffffffffffffffff1602179055509050507f22ef4b543cb899e27e3613228b525999a96219c2ea7ff37827f83daa46671a85833461140b6119a2565b8460405161141c9493929190612771565b60405180910390a1505050565b6000811015801561143b575060045481105b61147a576040517f08c379a000000000000000000000000000000000000000000000000000000000815260040161147190612828565b60405180910390fd5b600080600083815260200190815260200160002060010154905060008083815260200190815260200160002060010160008154809291906114ba90612848565b919050555060026000838152602001908152602001600020600082815260200190815260200160002060006101000a81549073ffffffffffffffffffffffffffffffffffffffff02191690555050565b6000811015801561151c575060045481105b61155b576040517f08c379a0000000000000000000000000000000000000000000000000000000008152600401611552906128e4565b60405180910390fd5b6000806000838152602001908152602001600020600201549050600080838152602001908152602001600020600201600081548092919061159b906124c1565b91905055506115a86119a2565b60036000848152602001908152602001600020600083815260200190815260200160002060006101000a81548173ffffffffffffffffffffffffffffffffffffffff021916908373ffffffffffffffffffffffffffffffffffffffff1602179055505050565b6000835111611652576040517f08c379a000000000000000000000000000000000000000000000000000000000815260040161164990612950565b60405180910390fd5b6000825111611696576040517f08c379a000000000000000000000000000000000000000000000000000000000815260040161168d906129e2565b60405180910390fd5b600073ffffffffffffffffffffffffffffffffffffffff166116b66119a2565b73ffffffffffffffffffffffffffffffffffffffff16141561170d576040517f08c379a000000000000000000000000000000000000000000000000000000000815260040161170490612950565b60405180910390fd5b6040518061012001604052806004548152602001600081526020016000815260200160008152602001600081526020018481526020018381526020018281526020016117576119a2565b73ffffffffffffffffffffffffffffffffffffffff168152506000806004548152602001908152602001600020600082015181600001556020820151816001015560408201518160020155606082015181600301556080820151816004015560a08201518160050190805190602001906117d2929190611b3e565b5060c08201518160060190805190602001906117ef929190611b3e565b5060e082015181600701908051906020019061180c929190611b3e565b506101008201518160080160006101000a81548173ffffffffffffffffffffffffffffffffffffffff021916908373ffffffffffffffffffffffffffffffffffffffff1602179055509050506004600081548092919061186b906124c1565b91905055507fb80f87406b72baa5a47a424e6c8f284ee91e4fef063c94c62ab1ea33a27a858b600454848461189e6119a2565b6040516118ae9493929190612a02565b60405180910390a1505050565b600081101580156118cd575060045481105b61190c576040517f08c379a000000000000000000000000000000000000000000000000000000000815260040161190390612ac7565b60405180910390fd5b6000806000838152602001908152602001600020600201549050600080838152602001908152602001600020600201600081548092919061194c90612848565b919050555060036000838152602001908152602001600020600082815260200190815260200160002060006101000a81549073ffffffffffffffffffffffffffffffffffffffff02191690555050565b60045481565b600033905090565b804710156119ed576040517f08c379a00000000000000000000000000000000000000000000000000000000081526004016119e490612b33565b60405180910390fd5b60008273ffffffffffffffffffffffffffffffffffffffff1682604051611a1390612b84565b60006040518083038185875af1925050503d8060008114611a50576040519150601f19603f3d011682016040523d82523d6000602084013e611a55565b606091505b5050905080611a99576040517f08c379a0000000000000000000000000000000000000000000000000000000008152600401611a9090612c0b565b60405180910390fd5b505050565b6040518060800160405280600081526020016060815260200160608152602001600073ffffffffffffffffffffffffffffffffffffffff1681525090565b6040518061012001604052806000815260200160008152602001600081526020016000815260200160008152602001606081526020016060815260200160608152602001600073ffffffffffffffffffffffffffffffffffffffff1681525090565b828054611b4a90612431565b90600052602060002090601f016020900481019282611b6c5760008555611bb3565b82601f10611b8557805160ff1916838001178555611bb3565b82800160010185558215611bb3579182015b82811115611bb2578251825591602001919060010190611b97565b5b509050611bc09190611bc4565b5090565b5b80821115611bdd576000816000905550600101611bc5565b5090565b6000604051905090565b600080fd5b600080fd5b6000819050919050565b611c0881611bf5565b8114611c1357600080fd5b50565b600081359050611c2581611bff565b92915050565b600060208284031215611c4157611c40611beb565b5b6000611c4f84828501611c16565b91505092915050565b611c6181611bf5565b82525050565b600081519050919050565b600082825260208201905092915050565b60005b83811015611ca1578082015181840152602081019050611c86565b83811115611cb0576000848401525b50505050565b6000601f19601f8301169050919050565b6000611cd282611c67565b611cdc8185611c72565b9350611cec818560208601611c83565b611cf581611cb6565b840191505092915050565b600073ffffffffffffffffffffffffffffffffffffffff82169050919050565b6000611d2b82611d00565b9050919050565b611d3b81611d20565b82525050565b600061012082019050611d57600083018c611c58565b611d64602083018b611c58565b611d71604083018a611c58565b611d7e6060830189611c58565b611d8b6080830188611c58565b81810360a0830152611d9d8187611cc7565b905081810360c0830152611db18186611cc7565b905081810360e0830152611dc58185611cc7565b9050611dd5610100830184611d32565b9a9950505050505050505050565b600081519050919050565b600082825260208201905092915050565b6000819050602082019050919050565b611e1881611bf5565b82525050565b600082825260208201905092915050565b6000611e3a82611c67565b611e448185611e1e565b9350611e54818560208601611c83565b611e5d81611cb6565b840191505092915050565b6000611e7382611d00565b9050919050565b611e8381611e68565b82525050565b6000608083016000830151611ea16000860182611e0f565b5060208301518482036020860152611eb98282611e2f565b91505060408301518482036040860152611ed38282611e2f565b9150506060830151611ee86060860182611e7a565b508091505092915050565b6000611eff8383611e89565b905092915050565b6000602082019050919050565b6000611f1f82611de3565b611f298185611dee565b935083602082028501611f3b85611dff565b8060005b85811015611f775784840389528151611f588582611ef3565b9450611f6383611f07565b925060208a01995050600181019050611f3f565b50829750879550505050505092915050565b60006020820190508181036000830152611fa38184611f14565b905092915050565b600081519050919050565b600082825260208201905092915050565b6000819050602082019050919050565b6000611fe38383611e7a565b60208301905092915050565b6000602082019050919050565b600061200782611fab565b6120118185611fb6565b935061201c83611fc7565b8060005b8381101561204d5781516120348882611fd7565b975061203f83611fef565b925050600181019050612020565b5085935050505092915050565b600060208201905081810360008301526120748184611ffc565b905092915050565b61208581611d20565b82525050565b6000610120830160008301516120a46000860182611e0f565b5060208301516120b76020860182611e0f565b5060408301516120ca6040860182611e0f565b5060608301516120dd6060860182611e0f565b5060808301516120f06080860182611e0f565b5060a083015184820360a08601526121088282611e2f565b91505060c083015184820360c08601526121228282611e2f565b91505060e083015184820360e086015261213c8282611e2f565b91505061010083015161215361010086018261207c565b508091505092915050565b60006020820190508181036000830152612178818461208b565b905092915050565b600080fd5b600080fd5b7f4e487b7100000000000000000000000000000000000000000000000000000000600052604160045260246000fd5b6121c282611cb6565b810181811067ffffffffffffffff821117156121e1576121e061218a565b5b80604052505050565b60006121f4611be1565b905061220082826121b9565b919050565b600067ffffffffffffffff8211156122205761221f61218a565b5b61222982611cb6565b9050602081019050919050565b82818337600083830152505050565b600061225861225384612205565b6121ea565b90508281526020810184848401111561227457612273612185565b5b61227f848285612236565b509392505050565b600082601f83011261229c5761229b612180565b5b81356122ac848260208601612245565b91505092915050565b6000806000606084860312156122ce576122cd611beb565b5b60006122dc86828701611c16565b935050602084013567ffffffffffffffff8111156122fd576122fc611bf0565b5b61230986828701612287565b925050604084013567ffffffffffffffff81111561232a57612329611bf0565b5b61233686828701612287565b9150509250925092565b60008060006060848603121561235957612358611beb565b5b600084013567ffffffffffffffff81111561237757612376611bf0565b5b61238386828701612287565b935050602084013567ffffffffffffffff8111156123a4576123a3611bf0565b5b6123b086828701612287565b925050604084013567ffffffffffffffff8111156123d1576123d0611bf0565b5b6123dd86828701612287565b9150509250925092565b60006020820190506123fc6000830184611c58565b92915050565b7f4e487b7100000000000000000000000000000000000000000000000000000000600052602260045260246000fd5b6000600282049050600182168061244957607f821691505b6020821081141561245d5761245c612402565b5b50919050565b7f4e487b7100000000000000000000000000000000000000000000000000000000600052603260045260246000fd5b7f4e487b7100000000000000000000000000000000000000000000000000000000600052601160045260246000fd5b60006124cc82611bf5565b91507fffffffffffffffffffffffffffffffffffffffffffffffffffffffffffffffff8214156124ff576124fe612492565b5b600182019050919050565b7f496e7372616772616d3a2054686973204964204164644c696b6520496e636f7260008201527f7265637400000000000000000000000000000000000000000000000000000000602082015250565b6000612566602483611c72565b91506125718261250a565b604082019050919050565b6000602082019050818103600083015261259581612559565b9050919050565b7f496e7372616772616d3a205468697320496420416464436f6d6d656e7420496e60008201527f636f727265637400000000000000000000000000000000000000000000000000602082015250565b60006125f8602783611c72565b91506126038261259c565b604082019050919050565b60006020820190508181036000830152612627816125eb565b9050919050565b7f496e7374616772616d3a54686973204465736372697074696f6e20416464436f60008201527f6d6d656e7420496e636f72726563740000000000000000000000000000000000602082015250565b600061268a602f83611c72565b91506126958261262e565b604082019050919050565b600060208201905081810360008301526126b98161267d565b9050919050565b6126c981611e68565b82525050565b60006080820190506126e46000830187611c58565b6126f16020830186611c58565b81810360408301526127038185611cc7565b905061271260608301846126c0565b95945050505050565b600061272682611bf5565b915061273183611bf5565b9250827fffffffffffffffffffffffffffffffffffffffffffffffffffffffffffffffff0382111561276657612765612492565b5b828201905092915050565b60006080820190506127866000830187611c58565b6127936020830186611c58565b6127a060408301856126c0565b6127ad6060830184611d32565b95945050505050565b7f496e7372616772616d3a2054686973204964205375624c696b6520496e636f7260008201527f7265637400000000000000000000000000000000000000000000000000000000602082015250565b6000612812602483611c72565b915061281d826127b6565b604082019050919050565b6000602082019050818103600083015261284181612805565b9050919050565b600061285382611bf5565b9150600082141561286757612866612492565b5b600182039050919050565b7f496e7372616772616d3a2054686973204964204164646469734c696b6520496e60008201527f636f727265637400000000000000000000000000000000000000000000000000602082015250565b60006128ce602783611c72565b91506128d982612872565b604082019050919050565b600060208201905081810360008301526128fd816128c1565b9050919050565b7f496e7374616772616d3a54686973204861736820496e636f7272656374000000600082015250565b600061293a601d83611c72565b915061294582612904565b602082019050919050565b600060208201905081810360008301526129698161292d565b9050919050565b7f496e7374616772616d3a54686973204465736372697074696f6e20496e636f7260008201527f7265637400000000000000000000000000000000000000000000000000000000602082015250565b60006129cc602483611c72565b91506129d782612970565b604082019050919050565b600060208201905081810360008301526129fb816129bf565b9050919050565b6000608082019050612a176000830187611c58565b8181036020830152612a298186611cc7565b90508181036040830152612a3d8185611cc7565b9050612a4c6060830184611d32565b95945050505050565b7f496e7372616772616d3a2054686973204964205375626469734c696b6520496e60008201527f636f727265637400000000000000000000000000000000000000000000000000602082015250565b6000612ab1602783611c72565b9150612abc82612a55565b604082019050919050565b60006020820190508181036000830152612ae081612aa4565b9050919050565b7f416464726573733a20696e73756666696369656e742062616c616e6365000000600082015250565b6000612b1d601d83611c72565b9150612b2882612ae7565b602082019050919050565b60006020820190508181036000830152612b4c81612b10565b9050919050565b600081905092915050565b50565b6000612b6e600083612b53565b9150612b7982612b5e565b600082019050919050565b6000612b8f82612b61565b9150819050919050565b7f416464726573733a20756e61626c6520746f2073656e642076616c75652c207260008201527f6563697069656e74206d61792068617665207265766572746564000000000000602082015250565b6000612bf5603a83611c72565b9150612c0082612b99565b604082019050919050565b60006020820190508181036000830152612c2481612be8565b905091905056fea2646970667358221220ab5bcd013694c852f7557e7087db13e846a6ad9190d59996ee58e97c23662e0864736f6c634300080b0033",
  "immutableReferences": {},
  "source": "// SPDX-License-Identifier: MIT\r\n\r\npragma solidity >=0.4.22 <0.9.0;\r\n\r\nimport \"@openzeppelin/contracts/utils/Context.sol\";\r\nimport \"@openzeppelin/contracts/utils/Address.sol\";\r\n\r\n\r\ncontract Instagram is Context {\r\n    using Address for address;\r\n\r\n    struct Post {\r\n        uint256 id;\r\n        uint256 likeCounter;\r\n        uint256 disLikeCounter;\r\n        uint256 commentCounter;\r\n        uint256 tipAmount;\r\n        string hashImage;\r\n        string description;\r\n        string date;\r\n        address payable author;\r\n    }\r\n\r\n    struct Comment {\r\n        uint256 id;\r\n        string comment;\r\n        string date;\r\n        address author;\r\n    }\r\n\r\n    mapping(uint256 => Post) public posts; //posts[0] = post\r\n    mapping(uint256 => mapping(uint256 => Comment)) comments; // comments[idpost][idcomment] = comment\r\n    mapping(uint256 => mapping(uint256 => address)) likes; // likes[idpost][likecounter] = address\r\n    mapping(uint256 => mapping(uint256 => address)) dislikes;\r\n\r\n    event PostCreated(\r\n        uint256 id,\r\n        string hashimage,\r\n        string description,\r\n        address payable author\r\n    );\r\n\r\n    event CommentCreated(\r\n        uint256 idpost,\r\n        uint256 idcomment,\r\n        string comment,\r\n        address author\r\n    );\r\n\r\n    event TipPosted(\r\n        uint256 id,\r\n        uint256 tipamount,\r\n        address currentaccount,\r\n        address payable author\r\n    );\r\n\r\n    uint256 public PostCounter;\r\n\r\n    function UplodPost(\r\n        string memory hashimg,\r\n        string memory des,\r\n        string memory date\r\n    ) public {\r\n        require(bytes(hashimg).length > 0, \"Instagram:This Hash Incorrect\");\r\n        require(bytes(des).length > 0, \"Instagram:This Description Incorrect\");\r\n        require(_msgSender() != address(0), \"Instagram:This Hash Incorrect\");\r\n\r\n        posts[PostCounter] = Post(\r\n            PostCounter,\r\n            0,\r\n            0,\r\n            0,\r\n            0,\r\n            hashimg,\r\n            des,\r\n            date,\r\n            payable(_msgSender())\r\n        );\r\n        PostCounter++;\r\n\r\n        emit PostCreated(PostCounter, hashimg, des, payable(_msgSender()));\r\n    }\r\n\r\n    function getPost(uint256 _id) public view returns (Post memory) {\r\n        require(\r\n            _id >= 0 && _id < PostCounter,\r\n            \"Insragram: This Id AddLike Incorrect\"\r\n        );\r\n        return posts[_id];\r\n    }\r\n\r\n    function AddLike(uint256 _id) public {\r\n        require(\r\n            _id >= 0 && _id < PostCounter,\r\n            \"Insragram: This Id AddLike Incorrect\"\r\n        );\r\n\r\n        uint256 numberlike = posts[_id].likeCounter;\r\n        posts[_id].likeCounter++;\r\n        likes[_id][numberlike] = _msgSender();\r\n    }\r\n\r\n    function SubLike(uint256 _id) public {\r\n        require(\r\n            _id >= 0 && _id < PostCounter,\r\n            \"Insragram: This Id SubLike Incorrect\"\r\n        );\r\n\r\n        uint256 numberlike = posts[_id].likeCounter;\r\n        posts[_id].likeCounter--;\r\n        delete likes[_id][numberlike];\r\n    }\r\n\r\n    function getLike(uint256 _id) public view returns (address[] memory) {\r\n        address[] memory ret = new address[](posts[_id].likeCounter);\r\n\r\n        for (uint256 index = 0; index < posts[_id].likeCounter; index++) {\r\n            ret[index] = likes[_id][index];\r\n        }\r\n\r\n        return ret;\r\n    }\r\n\r\n    function AdddisLike(uint256 _id) public {\r\n        require(\r\n            _id >= 0 && _id < PostCounter,\r\n            \"Insragram: This Id AdddisLike Incorrect\"\r\n        );\r\n\r\n        uint256 numberdislike = posts[_id].disLikeCounter;\r\n        posts[_id].disLikeCounter++;\r\n        dislikes[_id][numberdislike] = _msgSender();\r\n    }\r\n\r\n    function SubdisLike(uint256 _id) public {\r\n        require(\r\n            _id >= 0 && _id < PostCounter,\r\n            \"Insragram: This Id SubdisLike Incorrect\"\r\n        );\r\n\r\n        uint256 numberdislike = posts[_id].disLikeCounter;\r\n        posts[_id].disLikeCounter--;\r\n        delete dislikes[_id][numberdislike];\r\n    }\r\n\r\n    function getdisLike(uint256 _id) public view returns (address[] memory) {\r\n        address[] memory ret = new address[](posts[_id].disLikeCounter);\r\n\r\n        for (uint256 index = 0; index < posts[_id].disLikeCounter; index++) {\r\n            ret[index] = dislikes[_id][index];\r\n        }\r\n\r\n        return ret;\r\n    }\r\n\r\n    function AddComment(\r\n        uint256 _id,\r\n        string memory comment,\r\n        string memory date\r\n    ) public {\r\n        require(\r\n            _id >= 0 && _id < PostCounter,\r\n            \"Insragram: This Id AddComment Incorrect\"\r\n        );\r\n\r\n        require(\r\n            bytes(comment).length > 0,\r\n            \"Instagram:This Description AddComment Incorrect\"\r\n        );\r\n\r\n        uint256 count = posts[_id].commentCounter;\r\n        comments[_id][count].id = count;\r\n        comments[_id][count].comment = comment;\r\n        comments[_id][count].date = date;\r\n        comments[_id][count].author = _msgSender();\r\n\r\n        posts[_id].commentCounter++;\r\n\r\n        emit CommentCreated(_id, count, comment, _msgSender());\r\n    }\r\n\r\n    function getComments(uint256 _id) public view returns (Comment[] memory) {\r\n        Comment[] memory ret = new Comment[](posts[_id].commentCounter);\r\n\r\n        for (uint256 index = 0; index < posts[_id].commentCounter; index++) {\r\n            ret[index] = comments[_id][index];\r\n        }\r\n\r\n        return ret;\r\n    }\r\n\r\n    function TipPosts(uint256 _id) public payable {\r\n        require(\r\n            _id >= 0 && _id < PostCounter,\r\n            \"Insragram: This Id AddComment Incorrect\"\r\n        );\r\n\r\n        Post memory post = posts[_id];\r\n\r\n        address payable authoraddress = post.author;\r\n        Address.sendValue(authoraddress, msg.value);\r\n\r\n        post.tipAmount += msg.value;\r\n\r\n        posts[_id] = post;\r\n\r\n        emit TipPosted(_id, msg.value, _msgSender(), authoraddress);\r\n\r\n    }\r\n}\r\n",
  "sourcePath": "C:\\Users\\HP\\Documents\\DApp\\DInstagram\\Contract\\contracts\\Instagram.sol",
  "compiler": {
    "name": "solc",
    "version": "0.8.11+commit.d7f03943.Emscripten.clang"
  },
  "schemaVersion": "3.4.6",
  "updatedAt": "2022-08-10T11:13:51.299Z",
  "networkType": "ethereum",
  "devdoc": {
    "kind": "dev",
    "methods": {},
    "version": 1
  },
  "userdoc": {
    "kind": "user",
    "methods": {},
    "version": 1
  }
}